{
  "_format": "hh-sol-artifact-1",
  "contractName": "Voting",
  "sourceName": "contracts/Voting.sol",
  "abi": [
    {
      "inputs": [],
      "stateMutability": "nonpayable",
      "type": "constructor"
    },
    {
      "anonymous": false,
      "inputs": [
        {
          "indexed": false,
          "internalType": "uint256",
          "name": "candidateID",
          "type": "uint256"
        }
      ],
      "name": "addedVoters",
      "type": "event"
    },
    {
      "inputs": [
        {
          "internalType": "bytes32",
          "name": "name",
          "type": "bytes32"
        },
        {
          "internalType": "bytes32",
          "name": "party",
          "type": "bytes32"
        }
      ],
      "name": "addCandidates",
      "outputs": [],
      "stateMutability": "nonpayable",
      "type": "function"
    },
    {
      "inputs": [
        {
          "internalType": "uint256",
          "name": "candidateID",
          "type": "uint256"
        }
      ],
      "name": "getCandidate",
      "outputs": [
        {
          "internalType": "uint256",
          "name": "",
          "type": "uint256"
        },
        {
          "internalType": "bytes32",
          "name": "",
          "type": "bytes32"
        },
        {
          "internalType": "bytes32",
          "name": "",
          "type": "bytes32"
        }
      ],
      "stateMutability": "view",
      "type": "function"
    },
    {
      "inputs": [],
      "name": "getNumOfCandidates",
      "outputs": [
        {
          "internalType": "uint256",
          "name": "",
          "type": "uint256"
        }
      ],
      "stateMutability": "view",
      "type": "function"
    },
    {
      "inputs": [],
      "name": "getNumOfVoters",
      "outputs": [
        {
          "internalType": "uint256",
          "name": "",
          "type": "uint256"
        }
      ],
      "stateMutability": "view",
      "type": "function"
    },
    {
      "inputs": [
        {
          "internalType": "uint256",
          "name": "candidateID",
          "type": "uint256"
        }
      ],
      "name": "totatVotes",
      "outputs": [
        {
          "internalType": "uint256",
          "name": "",
          "type": "uint256"
        }
      ],
      "stateMutability": "view",
      "type": "function"
    },
    {
      "inputs": [
        {
          "internalType": "bytes32",
          "name": "uid",
          "type": "bytes32"
        },
        {
          "internalType": "uint256",
          "name": "candidateID",
          "type": "uint256"
        }
      ],
      "name": "vote",
      "outputs": [],
      "stateMutability": "nonpayable",
      "type": "function"
    }
  ],
  "bytecode": "0x608060405234801561001057600080fd5b50336000806101000a81548173ffffffffffffffffffffffffffffffffffffffff021916908373ffffffffffffffffffffffffffffffffffffffff1602179055506105d0806100606000396000f3fe608060405234801561001057600080fd5b50600436106100625760003560e01c8063337bae3e1461006757806335b8e82014610083578063577f9185146100b557806365fc783c146100e55780639ef1204c14610103578063e8685ba11461011f575b600080fd5b610081600480360381019061007c91906103d0565b61013d565b005b61009d60048036038101906100989190610446565b610254565b6040516100ac93929190610491565b60405180910390f35b6100cf60048036038101906100ca9190610446565b610295565b6040516100dc91906104c8565b60405180910390f35b6100ed6102f2565b6040516100fa91906104c8565b60405180910390f35b61011d600480360381019061011891906104e3565b6102fc565b005b61012761038b565b60405161013491906104c8565b60405180910390f35b60008054906101000a900473ffffffffffffffffffffffffffffffffffffffff1673ffffffffffffffffffffffffffffffffffffffff163373ffffffffffffffffffffffffffffffffffffffff161461019557600080fd5b6000600160008154809291906101aa90610552565b91905055905060405180606001604052808481526020018381526020016001151581525060036000838152602001908152602001600020600082015181600001556020820151816001015560408201518160020160006101000a81548160ff0219169083151502179055509050507fb681b8afda53b3aab2485a33c2d56072508d81be391fdb2e397628c0e9c866bf8160405161024791906104c8565b60405180910390a1505050565b600080600083600360008681526020019081526020016000206000015460036000878152602001908152602001600020600101549250925092509193909250565b6000806000905060005b6002548110156102e857836004600083815260200190815260200160002060010154036102d55781806102d190610552565b9250505b80806102e090610552565b91505061029f565b5080915050919050565b6000600254905090565b600115156003600083815260200190815260200160002060020160009054906101000a900460ff161515036103875760006002600081548092919061034090610552565b919050559050604051806040016040528084815260200183815250600460008381526020019081526020016000206000820151816000015560208201518160010155905050505b5050565b6000600154905090565b600080fd5b6000819050919050565b6103ad8161039a565b81146103b857600080fd5b50565b6000813590506103ca816103a4565b92915050565b600080604083850312156103e7576103e6610395565b5b60006103f5858286016103bb565b9250506020610406858286016103bb565b9150509250929050565b6000819050919050565b61042381610410565b811461042e57600080fd5b50565b6000813590506104408161041a565b92915050565b60006020828403121561045c5761045b610395565b5b600061046a84828501610431565b91505092915050565b61047c81610410565b82525050565b61048b8161039a565b82525050565b60006060820190506104a66000830186610473565b6104b36020830185610482565b6104c06040830184610482565b949350505050565b60006020820190506104dd6000830184610473565b92915050565b600080604083850312156104fa576104f9610395565b5b6000610508858286016103bb565b925050602061051985828601610431565b9150509250929050565b7f4e487b7100000000000000000000000000000000000000000000000000000000600052601160045260246000fd5b600061055d82610410565b91507fffffffffffffffffffffffffffffffffffffffffffffffffffffffffffffffff820361058f5761058e610523565b5b60018201905091905056fea2646970667358221220d323e2730f2f7941d8f20c19f4237ae54c13479811a28ba582608e63e663f79264736f6c63430008120033",
  "linkReferences": {},
  "deployedLinkReferences": {}
}